S017000044435F536572766F5F4D6F746F72732E7372656335
S11300000C942A000C943C000C943C000C943C008E
S11300100C94DC060C9482060C943C000C943C007A
S11300200C943C000C943C000C943C000C943C005C
S11300300C943C000C943C000C943C000C943C004C
S11300400C943C000C943C000C943C000C943C003C
S11300500C943C0011241FBECFE5D8E0DEBFCDBF19
S113006020E0A0E6B0E001C01D92A03EB207E1F797
S11300700E942A010C9480090C9400004130B9F5C7
S11300808431A1F018F48A3031F008958E31C9F02A
S1130090883211F108952AB381E090E002C0880FFC
S11300A0991F6A95E2F7822B8ABB089527B381E0F2
S11300B090E002C0880F991F6A95E2F7822B87BBF4
S11300C0089524B381E090E002C0880F991F6A95D7
S11300D0E2F7822B84BB089521B381E090E002C053
S11300E0880F991F6A95E2F7822B81BB089541110D
S11300F03AC08431A9F018F48A3031F008958E3171
S1130100D9F0883229F108952AB381E090E002C041
S1130110880F991F6A95E2F7809582238ABB089518
S113012027B381E090E002C0880F991F6A95E2F737
S11301308095822387BB089524B381E090E002C0B8
S1130140880F991F6A95E2F78095822384BB0895EE
S113015021B381E090E002C0880F991F6A95E2F70D
S11301608095822381BB08954130B9F58431A1F093
S113017018F48A3031F008958E31C9F0883211F1C3
S113018008952BB381E090E002C0880F991F6A950F
S1130190E2F7822B8BBB089528B381E090E002C084
S11301A0880F991F6A95E2F7822B88BB089525B3BF
S11301B081E090E002C0880F991F6A95E2F7822BD4
S11301C085BB089522B381E090E002C0880F991F97
S11301D06A95E2F7822B82BB089541113AC08431BB
S11301E0A9F018F48A3031F008958E31D9F08832AC
S11301F029F108952BB381E090E002C0880F991F84
S11302006A95E2F7809582238BBB089528B381E039
S113021090E002C0880F991F6A95E2F780958223C7
S113022088BB089525B381E090E002C0880F991F30
S11302306A95E2F78095822385BB089522B381E015
S113024090E002C0880F991F6A95E2F78095822397
S113025082BB08950E94590182E00E9485010E9498
S1130260AC0184E690E00E9494010E94910182E333
S11302700E94DE01FFCF8091610080FD05C041E056
S113028067E088E20E94B400809161008F5F8093F0
S1130290610008958091600080FD05C040E067E042
S11302A088E20E94B400809160008F5F80936000B8
S11302B0089541E065E08EE10E943E0041E066E081
S11302C08EE10E943E00EBE8F0E0108283E081833F
S11302D082E080878583848788E090E0978786879B
S11302E0108A118A128A138A148A158A168A178A1E
S11302F0148E158E168E178E11A210A213A212A29E
S113030015A214A20E944E02089595B39F7995BB3D
S113031095B340E2849F900111242076922B95BBE3
S113032008950E948B050895009739F460E070E009
S113033081E090E00E942E0308958436910539F4FB
S113034060E070E083E690E00E942E03089560E090
S113035070E00E942E03089541E067E088E20E9465
S11303603E00EFEBF0E01082118287E0838388E0A7
S1130370848380E094E096838583178210861186B7
S11303801286138614861586168682E390E0A0E012
S1130390B0E08787908BA18BB28B138A148A158A5D
S11303A0168A178A108E0E9495058BE391E00E94AD
S11303B07D068AE491E00E94D7060895CF92DF92E9
S11303C0EF92FF92CF93DF93682F880F770B665AD3
S11303D07F4F072E000C880B990B0E944B08CFEB24
S11303E0D0E0698F7A8F8B8F9C8F698D7A8D8B8DFE
S11303F09C8D29E33EE843EE5CE30E94D708698FB5
S11304007A8F8B8F9C8F698D7A8D8B8D9C8D20E05C
S113041030E040EA50E40E943C07698F7A8F8B8F6A
S11304209C8F6AE070E080E090E00E94E105698DB5
S11304307A8D8B8D9C8D20E030E048EC52E40E9454
S1130440A8079B01AC010E943C076B017C018F81D2
S11304509885A985BA852F89BC01CD01621B7109D4
S1130460810991090E944908A70196010E94D708B1
S11304700E941A08688F9F89888D890F888F6AE087
S113048070E080E090E00E94E1050E947306DF9135
S1130490CF91FF90EF90DF90CF900895CF93DF93AB
S11304A08EB5877E8EBDEBE8F0E0808190E0880F0A
S11304B0991F880F991F880F991F887199279EB5D6
S11304C0892B8EBD808181111CC08FB58C7F8FBD1F
S11304D081819FB58370892B8FBD8181823049F0E2
S11304E0833059F0813009F049C088E08093980046
S11304F045C089E08093980041C08AE080939800C9
S11305003DC080918B008130E9F48FB58C7F8FBD25
S1130510EBE8F0E082819FB58370892B8FBD8281E7
S1130520823041F0833051F0813041F588E080938E
S1130530980024C089E08093980020C08AE08093CA
S113054098001CC080918B00823051F48FB58C7F51
S11305508FBD80918E009FB58370892B8FBD0EC097
S11305608FB58C7F8FBDEBE8F0E084819FB58370FD
S1130570892B8FBD8285938597BD86BD8091900020
S1130580823091F481B3806281BB8FB58F758FBD4A
S11305908091930020E4829FC0011124807A9927DE
S11305A09FB5892B8FBD35C080919000813091F427
S11305B081B3806181BB8FB58F7C8FBD80919400A6
S11305C040E1849FC0011124807399279FB5892B32
S11305D08FBD1FC081B3806281BB81B3806181BB49
S11305E08FB58F748FBDEBE8F0E0808520E4829FA7
S11305F0C00111249C01207A3327918540E1949F06
S1130600C001112480739927822B932B9FB5892BCA
S11306108FBDCBE8D0E02D8581E090E0A0E0B0E094
S113062004C0880F991FAA1FBB1F2A95D2F7888B75
S1130630998BAA8BBB8B6E857F85729562956F7043
S113064067277F70672780E090E00E9449086C8BE1
S11306507D8B8E8B9F8BDF91CF910895CF92DF920C
S1130660EF92FF920F931F93CF93DF93DC01EB0183
S113067090919000923029F090919000933009F07D
S113068029C190918B00913009F443C038F0923025
S113069009F48BC0933009F4CAC00DC180918C0059
S11306A0882309F408C180919300813008F403C1C0
S11306B0833018F08330A1F0FEC00BE810E0F8019D
S11306C020893189428953890E94750924E630E0E2
S11306D040E050E00E944409F80133A322A3EBC098
S11306E00BE810E0F801C088D188E288F3882089FB
S11306F03189428953890E94750924E630E040E03B
S113070050E00E944409C21AD30AF801D3A2C2A23B
S1130710D2C080918D00882309F4CDC080919300CC
S1130720823091F0833029F1813009F0C4C0EBE8C4
S1130730F0E080899189A289B389B695A7959795A8
S1130740879593A382A3B7C00BE810E0F801208932
S11307503189428953890E94750924E630E040E0DA
S113076050E00E94440921503109F80133A322A327
S1130770A2C00BE810E0F801C088D188E288F388B1
S113078020893189428953890E94750924E630E021
S113079040E050E00E944409C21AD30AFFEFCF1A86
S11307A0DF0AF801D3A2C2A286C080918E0080FD28
S11307B082C080919300813008F47DC0833018F0AA
S11307C08330C9F078C0EBE8F0E082859385A89F78
S11307D09001A99F300DB89F300D112436952795AF
S11307E036952795ABE7B4E10E94660996958795FF
S11307F093A382A360C0EBE8F0E042855385828531
S11308009385A89F9001A99F300DB89F300D1124A6
S11308103695279536952795ABE7B4E10E9466098E
S113082096958795481B590B53A342A344C08091C6
S11308308D00823009F03FC0809193008130D8F15F
S1130840833018F08330D1F036C0EBE8F0E08285D5
S11308509385A89F9001A99F300DB89F300D112456
S11308603695279536952795ABE7B4E10E9466093E
S113087096958795019793A382A31DC0EBE8F0E0BA
S11308804285538582859385A89F9001A99F300D49
S1130890B89F300D11243695279536952795ABE7EB
S11308A0B4E10E94660996958795481B590B4F5FE2
S11308B05F4F53A342A3EBE8F0E082A193A19BBD59
S11308C08ABD8581833031F48091AF009091B0006E
S11308D099BD88BD80919000813029F0809190006D
S11308E0833009F00FC180918B008130E9F138F039
S11308F0823009F478C0833009F4B4C0F4C0809124
S11309009400823019F08330A9F0EDC00BE810E0B8
S1130910F8012089318942895389DE010E947509D1
S113092024E630E040E050E00E944409F80135A399
S113093024A3D9C00BE810E0F801C088D188E2886C
S1130940F3882089318942895389DE010E9475091F
S113095024E630E040E050E00E944409C21AD30A81
S1130960F801D5A2C4A2BFC080918D00882309F4E8
S1130970BAC080919400823019F08330B9F0B3C0CA
S11309800BE810E0F8012089318942895389DE019E
S11309900E94750924E630E040E050E00E944409DA
S11309A021503109F80135A324A39DC00BE810E0C0
S11309B0F801C088D188E288F38820893189428986
S11309C05389DE010E94750924E630E040E050E0DE
S11309D00E944409C21AD30AFFEFCF1ADF0AF801B2
S11309E0D5A2C4A280C080918E0080FD7CC080917D
S11309F09400823019F08330C9F075C0EBE8F0E060
S1130A0082859385C89F9001C99F300DD89F300D72
S1130A1011243695279536952795ABE7B4E10E94C6
S1130A2066099695879595A384A35DC0EBE8F0E0ED
S1130A304285538582859385C89F9001C99F300D57
S1130A40D89F300D11243695279536952795ABE719
S1130A50B4E10E94660996958795481B590B55A3E6
S1130A6044A341C080918D008230E9F580919400C7
S1130A70823019F08330D1F036C0EBE8F0E08285A3
S1130A809385C89F9001C99F300DD89F300D1124C4
S1130A903695279536952795ABE7B4E10E9466090C
S1130AA096958795019795A384A31DC0EBE8F0E084
S1130AB04285538582859385C89F9001C99F300DD7
S1130AC0D89F300D11243695279536952795ABE799
S1130AD0B4E10E94660996958795481B590B4F5FB0
S1130AE05F4F55A344A3EBE8F0E084A195A199BD21
S1130AF088BD8581833031F48091AD009091AE0042
S1130B009BBD8ABDDF91CF911F910F91FF90EF9014
S1130B10DF90CF9008958EB5887F8EBD8091970029
S1130B209EB58770892B8EBD0895CF93DF93CFEB4D
S1130B30D0E02881227030E0220F331F220F331FB0
S1130B403881832F817090E00024969587950794CF
S1130B50969587950794982F802D822B887485BD50
S1130B60898195B58073892B85BD2C8181E090E0C6
S1130B70A0E0B0E004C0880F991FAA1FBB1F2A95EC
S1130B80D2F78F839887A987BA876D817E81729502
S1130B9062956F7067277F70672780E090E00E94FE
S1130BA049086B877C878D879E8789B7806489BF56
S1130BB089B7806889BF8FB780688FBFDF91CF9175
S1130BC008958F929F92AF92BF92CF92DF92EF924D
S1130BD0FF92CF93DF939B01AC018091BF008230E1
S1130BE0F1F1A8EEB3E00E9475090E944908CFEB29
S1130BF0D0E02B853C854D855E850E94A8070E9428
S1130C001A084B015C012F81388549855A850E9459
S1130C1044092B8B3C8B4D8B5E8BCF80D884E9842D
S1130C20FA842F81388549855A85C501B4010E940B
S1130C304409C61ACF8A8F8984BD8F89882359F0C5
S1130C408B899C89AD89BE890196A11DB11D8B8BB1
S1130C509C8BAD8BBE8B8091D70083BD39C0CFEB0D
S1130C60D0E0888D83BDA8EEB3E00E9475090E9490
S1130C7049082B853C854D855E850E94A8070E9406
S1130C801A084B015C01288D30E040E050E00E94DE
S1130C9044092B8B3C8B4D8B5E8BF88C288D30E07C
S1130CA040E050E0C501B4010E944409F61AFF8AED
S1130CB08F8984BD8F89882359F08B899C89AD895C
S1130CC0BE890196A11DB11D8B8B9C8BAD8BBE8BF8
S1130CD0DF91CF91FF90EF90DF90CF90BF90AF90D6
S1130CE09F908F90089585B5887F85BD8091C200BF
S1130CF095B58770892B85BD08959093DD00809309
S1130D00DC0008951F920F920FB60F9211242F93B7
S1130D103F934F935F936F937F938F939F93AF937F
S1130D20BF93CF93DF93EF93FF93809166009091ED
S1130D306700A0916800B09169000196A11DB11DE2
S1130D408093660090936700A0936800B093690055
S1130D504091D2005091D3006091D4007091D5009D
S1130D6084179507A607B70779F4109266001092C6
S1130D7067001092680010926900CFEBD0E0ED8D0F
S1130D80FE8D09958F8984BDFF91EF91DF91CF91FD
S1130D90BF91AF919F918F917F916F915F914F918F
S1130DA03F912F910F900FBE0F901F901895909325
S1130DB0DF008093DE0008951F920F920FB60F920A
S1130DC011242F933F934F935F936F937F938F934C
S1130DD09F93AF93BF93CF93DF93EF93FF93809150
S1130DE0BF00811106C0E091DE00F091DF0009959B
S1130DF02FC08091620090916300A0916400B09133
S1130E0065000196A11DB11D80936200909363005B
S1130E10A0936400B09365004091D2005091D30038
S1130E206091D4007091D50084179507A607B70781
S1130E3079F4109262001092630010926400109290
S1130E406500CFEBD0E0EF8DF8A109958F8984BDC3
S1130E50FF91EF91DF91CF91BF91AF919F918F91CE
S1130E607F916F915F914F913F912F910F900FBEA2
S1130E700F901F9018955058BB27AA270E9453071C
S1130E800C949D080E948F0838F00E94960820F068
S1130E9039F49F3F19F426F40C948C080EF4E09571
S1130EA0E7FB0C948608E92F0E94AE0858F3BA17A2
S1130EB0620773078407950720F079F4A6F50C946C
S1130EC0D0080EF4E0950B2EBA2FA02D0B01B9011A
S1130ED090010C01CA01A0011124FF27591B99F0AC
S1130EE0593F50F4503E68F11A16F040A22F232FB8
S1130EF0342F4427585FF3CF469537952795A79508
S1130F00F0405395C9F77EF41F16BA0B620B730BAE
S1130F10840BBAF09150A1F0FF0FBB1F661F771F1F
S1130F20881FC2F70EC0BA0F621F731F841F48F4D4
S1130F30879577956795B795F7959E3F08F0B0CF5D
S1130F409395880F08F09927EE0F97958795089544
S1130F500E94BC070C949D080E94960858F00E94B9
S1130F608F0840F029F45F3F29F00C948608511152
S1130F700C94D1080C948C080E94AE0868F3992351
S1130F80B1F3552391F3951B550BBB27AA27621781
S1130F907307840738F09F5F5F4F220F331F441F8E
S1130FA0AA1FA9F335D00E2E3AF0E0E832D09150C2
S1130FB05040E695001CCAF72BD0FE2F29D0660FAF
S1130FC0771F881FBB1F261737074807AB07B0E8F2
S1130FD009F0BB0B802DBF01FF2793585F4F3AF0F8
S1130FE09E3F510578F00C9486080C94D1085F3F1D
S1130FF0E4F3983ED4F3869577956795B795F7957E
S11310009F5FC9F7880F911D9695879597F9089565
S1131010E1E0660F771F881FBB1F62177307840701
S1131020BA0720F0621B730B840BBA0BEE1F88F710
S1131030E09508950E94B60888F09F5798F0B92F5C
S11310409927B751B0F0E1F0660F771F881F991FF9
S11310501AF0BA95C9F714C0B13091F00E94D008C3
S1131060B1E008950C94D008672F782F8827B85FD3
S113107039F0B93FCCF3869577956795B395D9F751
S11310803EF490958095709561957F4F8F4F9F4F5B
S11310900895E89409C097FB3EF490958095709567
S11310A061957F4F8F4F9F4F9923A9F0F92F96E9B0
S11310B0BB279395F695879577956795B795F11125
S11310C0F8CFFAF4BB0F11F460FF1BC06F5F7F4FC2
S11310D08F4F9F4F16C0882311F096E911C07723D4
S11310E021F09EE8872F762F05C0662371F096E8DD
S11310F0862F70E060E02AF09A95660F771F881FAC
S1131100DAF7880F9695879597F9089597F99F6769
S113111080E870E060E008959FEF80EC089500247B
S11311200A941616170618060906089500240A9448
S113113012161306140605060895092E0394000CCE
S113114011F4882352F0BB0F40F4BF2B11F460FF5D
S113115004C06F5F7F4F8F4F9F4F089557FD905886
S1131160440F551F59F05F3F71F04795880F97FB67
S1131170991F61F09F3F79F0879508951216130621
S11311801406551FF2CF4695F1DF08C01616170650
S11311901806991FF1CF8695710561050894089585
S11311A0E894BB2766277727CB0197F908950E9417
S11311B0EA080C949D080E948F0838F00E94960853
S11311C020F0952311F00C9486080C948C081124BB
S11311D00C94D1080E94AE0870F3959FC1F3950F4B
S11311E050E0551F629FF001729FBB27F00DB11DA7
S11311F0639FAA27F00DB11DAA1F649F6627B00D37
S1131200A11D661F829F2227B00DA11D621F739F1F
S1131210B00DA11D621F839FA00D611D221F749F2D
S11312203327A00D611D231F849F600D211D822F74
S1131230762F6A2F11249F5750409AF0F1F088239B
S11312404AF0EE0FFF1FBB1F661F771F881F9150C8
S11312505040A9F79E3F510580F00C9486080C94E9
S1131260D1085F3FE4F3983ED4F38695779567956C
S1131270B795F795E7959F5FC1F7FE2B880F911DF2
S11312809695879597F90895A1E21A2EAA1BBB1B80
S1131290FD010DC0AA1FBB1FEE1FFF1FA217B3073E
S11312A0E407F50720F0A21BB30BE40BF50B661F54
S11312B0771F881F991F1A9469F760957095809518
S11312C090959B01AC01BD01CF010895A29FB0018F
S11312D0B39FC001A39F700D811D1124911DB29F66
S11312E0700D811D1124911D08950E946609A59F0A
S11312F0900DB49F900DA49F800D911D112408950D
S1071300F894FFCF8B
S9030000FC
